:020000040000FA
:0600000083018A0195292D
:080008001F288316FF3086005B
:10001000003087008312071007110030AD00003058
:10002000B3000030B0000030AF00C03081008B174B
:100030000B170B168B100B1107215D2108008B137A
:100040000B130B12B100030EB200301433184E2004
:10005000320E8300B10E310E8B170B170B168B105F
:100060000B1109002D1C4428362808002708AF0072
:10007000A701AF0AAF0B3E285A20080034213314E1
:10008000F420A70AAF033928A70AA70B49285A204A
:10009000080034213314F420A70344286F20861865
:1000A0009529061C4F28331008002A30A100A10B07
:1000B0005728080034213B30A200FF30A30007146A
:1000C0005520071055200714A30B5F28A20B5F28AB
:1000D000952908002A30A100A10B6C2808002808E7
:1000E000AC0085202908AC0085200800C830A3009A
:1000F00000006A2000006A20A30B782808000A305C
:10010000A4007620A40B812808002C1988288B28AD
:10011000AC18DA288E28AC18912894282C18CF28EF
:10012000C4282C18B928AE282C18A3289828080011
:10013000EE207620EE207620EE207620EE2076202F
:10014000EE207F200800E5207620EE207620EE20AD
:100150007620EE207620EE207F200800E520762015
:10016000E5207620EE207620EE207620EE207F20FF
:100170000800E5207620E5207620E5207620EE2098
:100180007620EE207F200800E5207620E5207620EE
:10019000E5207620E5207620EE207F200800E5206F
:1001A0007620E5207620E5207620E5207620E520E3
:1001B0007F200800EE207620E5207620E5207620BE
:1001C000E5207620E5207F200800C830A300071432
:1001D0006A2007106A20A30BE72808000530A40056
:1001E000E520A40BF02808008F30A1000D30A400FA
:1001F00086189529FF30A300A30BFC28A40BFA282E
:10020000A10BF62808000808A7003421080083166F
:10021000FF30880083123D2108002708AB0007301B
:10022000A702A80AA71F1029A803A7072708A90043
:100230002B08A7000800A801A9010D210130A50085
:100240002908A6004F210230A5002808A6004F214A
:1002500008000230A5000630A6004F210130A5009D
:100260000630A6004F2108002708AA003030AA0255
:10027000AA1F2921AA1B1B21080002309400831603
:100280000313403094001030870006309F00DF30A9
:1002900085008312870193012230940008008512A3
:1002A0008C11250893008C1D53298C11260893006E
:1002B0008C1D58298C11851608000C30A5000030C3
:1002C000A6004F21000000000930A500FF30A60065
:1002D0004F21000000000B30A5000130A6004F2187
:1002E000000000000A30A5000E30A6004F210000DB
:1002F00000000C30A5000130A6004F210130A50000
:100300000030A6004F210230A5000030A6004F218A
:10031000F42008002D1C90298D2907112D109229F9
:1003200007152D14061992290800052003218618A7
:10033000952906198A21301C9629301032209529DA
:040340000034003451
:02400E00323F3F
:00000001FF
